{
  "contractName": "PayslipContract",
  "abi": [
    {
      "inputs": [],
      "stateMutability": "nonpayable",
      "type": "constructor"
    },
    {
      "anonymous": false,
      "inputs": [
        {
          "indexed": false,
          "internalType": "uint256",
          "name": "employeeId",
          "type": "uint256"
        },
        {
          "indexed": false,
          "internalType": "uint256",
          "name": "netPay",
          "type": "uint256"
        },
        {
          "indexed": false,
          "internalType": "string",
          "name": "payslipHash",
          "type": "string"
        },
        {
          "indexed": false,
          "internalType": "uint256",
          "name": "timestamp",
          "type": "uint256"
        }
      ],
      "name": "PayslipGenerated",
      "type": "event"
    },
    {
      "inputs": [],
      "name": "hrAdmin",
      "outputs": [
        {
          "internalType": "address",
          "name": "",
          "type": "address"
        }
      ],
      "stateMutability": "view",
      "type": "function",
      "constant": true
    },
    {
      "inputs": [
        {
          "internalType": "uint256",
          "name": "_empId",
          "type": "uint256"
        },
        {
          "internalType": "string",
          "name": "_name",
          "type": "string"
        },
        {
          "internalType": "string",
          "name": "_company",
          "type": "string"
        },
        {
          "internalType": "uint256",
          "name": "_basicSalary",
          "type": "uint256"
        },
        {
          "internalType": "uint256",
          "name": "_netPay",
          "type": "uint256"
        },
        {
          "internalType": "uint256",
          "name": "_month",
          "type": "uint256"
        },
        {
          "internalType": "uint256",
          "name": "_year",
          "type": "uint256"
        },
        {
          "internalType": "string",
          "name": "_hash",
          "type": "string"
        }
      ],
      "name": "generatePayslip",
      "outputs": [],
      "stateMutability": "nonpayable",
      "type": "function"
    },
    {
      "inputs": [
        {
          "internalType": "uint256",
          "name": "_empId",
          "type": "uint256"
        },
        {
          "internalType": "uint256",
          "name": "_index",
          "type": "uint256"
        }
      ],
      "name": "getPayslip",
      "outputs": [
        {
          "components": [
            {
              "internalType": "uint256",
              "name": "employeeId",
              "type": "uint256"
            },
            {
              "internalType": "string",
              "name": "employeeName",
              "type": "string"
            },
            {
              "internalType": "string",
              "name": "company",
              "type": "string"
            },
            {
              "internalType": "uint256",
              "name": "basicSalary",
              "type": "uint256"
            },
            {
              "internalType": "uint256",
              "name": "netPay",
              "type": "uint256"
            },
            {
              "internalType": "uint256",
              "name": "month",
              "type": "uint256"
            },
            {
              "internalType": "uint256",
              "name": "year",
              "type": "uint256"
            },
            {
              "internalType": "string",
              "name": "payslipHash",
              "type": "string"
            },
            {
              "internalType": "uint256",
              "name": "timestamp",
              "type": "uint256"
            }
          ],
          "internalType": "struct PayslipContract.Payslip",
          "name": "",
          "type": "tuple"
        }
      ],
      "stateMutability": "view",
      "type": "function",
      "constant": true
    },
    {
      "inputs": [
        {
          "internalType": "uint256",
          "name": "_empId",
          "type": "uint256"
        }
      ],
      "name": "getPayslipCount",
      "outputs": [
        {
          "internalType": "uint256",
          "name": "",
          "type": "uint256"
        }
      ],
      "stateMutability": "view",
      "type": "function",
      "constant": true
    },
    {
      "inputs": [
        {
          "internalType": "uint256",
          "name": "_empId",
          "type": "uint256"
        },
        {
          "internalType": "string",
          "name": "_hash",
          "type": "string"
        }
      ],
      "name": "verifyPayslip",
      "outputs": [
        {
          "internalType": "bool",
          "name": "",
          "type": "bool"
        }
      ],
      "stateMutability": "view",
      "type": "function",
      "constant": true
    }
  ],
  "bytecode": "0x608060405234801561001057600080fd5b50336000806101000a81548173ffffffffffffffffffffffffffffffffffffffff021916908373ffffffffffffffffffffffffffffffffffffffff160217905550611188806100606000396000f3fe608060405234801561001057600080fd5b50600436106100575760003560e01c80638039c51c1461005c578063863116081461008c578063ce8b1e08146100aa578063da40d1cd146100da578063fc145fd41461010a575b600080fd5b61007660048036038101906100719190610800565b610126565b6040516100839190610877565b60405180910390f35b6100946101cd565b6040516100a191906108d3565b60405180910390f35b6100c460048036038101906100bf91906108ee565b6101f1565b6040516100d1919061092a565b60405180910390f35b6100f460048036038101906100ef9190610945565b610211565b6040516101019190610ae6565b60405180910390f35b610124600480360381019061011f9190610b08565b610452565b005b600080600090505b60016000858152602001908152602001600020805490508110156101c157828051906020012060016000868152602001908152602001600020828154811061017957610178610c12565b5b90600052602060002090600902016007016040516101979190610d44565b6040518091039020036101ae5760019150506101c7565b80806101b990610d8a565b91505061012e565b50600090505b92915050565b60008054906101000a900473ffffffffffffffffffffffffffffffffffffffff1681565b600060016000838152602001908152602001600020805490509050919050565b610219610624565b60016000848152602001908152602001600020828154811061023e5761023d610c12565b5b9060005260206000209060090201604051806101200160405290816000820154815260200160018201805461027290610c70565b80601f016020809104026020016040519081016040528092919081815260200182805461029e90610c70565b80156102eb5780601f106102c0576101008083540402835291602001916102eb565b820191906000526020600020905b8154815290600101906020018083116102ce57829003601f168201915b5050505050815260200160028201805461030490610c70565b80601f016020809104026020016040519081016040528092919081815260200182805461033090610c70565b801561037d5780601f106103525761010080835404028352916020019161037d565b820191906000526020600020905b81548152906001019060200180831161036057829003601f168201915b50505050508152602001600382015481526020016004820154815260200160058201548152602001600682015481526020016007820180546103be90610c70565b80601f01602080910402602001604051908101604052809291908181526020018280546103ea90610c70565b80156104375780601f1061040c57610100808354040283529160200191610437565b820191906000526020600020905b81548152906001019060200180831161041a57829003601f168201915b50505050508152602001600882015481525050905092915050565b60008054906101000a900473ffffffffffffffffffffffffffffffffffffffff1673ffffffffffffffffffffffffffffffffffffffff163373ffffffffffffffffffffffffffffffffffffffff16146104e0576040517f08c379a00000000000000000000000000000000000000000000000000000000081526004016104d790610e2f565b60405180910390fd5b600160008981526020019081526020016000206040518061012001604052808a815260200189815260200188815260200187815260200186815260200185815260200184815260200183815260200142815250908060018154018082558091505060019003906000526020600020906009020160009091909190915060008201518160000155602082015181600101908161057b9190610ffb565b5060408201518160020190816105919190610ffb565b50606082015181600301556080820151816004015560a0820151816005015560c0820151816006015560e08201518160070190816105cf9190610ffb565b50610100820151816008015550507f0998ba216c5a2523cd5f2789b46331202528f4ab3c6630129e94bd3170d058f3888583426040516106129493929190611106565b60405180910390a15050505050505050565b6040518061012001604052806000815260200160608152602001606081526020016000815260200160008152602001600081526020016000815260200160608152602001600081525090565b6000604051905090565b600080fd5b600080fd5b6000819050919050565b61069781610684565b81146106a257600080fd5b50565b6000813590506106b48161068e565b92915050565b600080fd5b600080fd5b6000601f19601f8301169050919050565b7f4e487b7100000000000000000000000000000000000000000000000000000000600052604160045260246000fd5b61070d826106c4565b810181811067ffffffffffffffff8211171561072c5761072b6106d5565b5b80604052505050565b600061073f610670565b905061074b8282610704565b919050565b600067ffffffffffffffff82111561076b5761076a6106d5565b5b610774826106c4565b9050602081019050919050565b82818337600083830152505050565b60006107a361079e84610750565b610735565b9050828152602081018484840111156107bf576107be6106bf565b5b6107ca848285610781565b509392505050565b600082601f8301126107e7576107e66106ba565b5b81356107f7848260208601610790565b91505092915050565b600080604083850312156108175761081661067a565b5b6000610825858286016106a5565b925050602083013567ffffffffffffffff8111156108465761084561067f565b5b610852858286016107d2565b9150509250929050565b60008115159050919050565b6108718161085c565b82525050565b600060208201905061088c6000830184610868565b92915050565b600073ffffffffffffffffffffffffffffffffffffffff82169050919050565b60006108bd82610892565b9050919050565b6108cd816108b2565b82525050565b60006020820190506108e860008301846108c4565b92915050565b6000602082840312156109045761090361067a565b5b6000610912848285016106a5565b91505092915050565b61092481610684565b82525050565b600060208201905061093f600083018461091b565b92915050565b6000806040838503121561095c5761095b61067a565b5b600061096a858286016106a5565b925050602061097b858286016106a5565b9150509250929050565b61098e81610684565b82525050565b600081519050919050565b600082825260208201905092915050565b60005b838110156109ce5780820151818401526020810190506109b3565b60008484015250505050565b60006109e582610994565b6109ef818561099f565b93506109ff8185602086016109b0565b610a08816106c4565b840191505092915050565b600061012083016000830151610a2c6000860182610985565b5060208301518482036020860152610a4482826109da565b91505060408301518482036040860152610a5e82826109da565b9150506060830151610a736060860182610985565b506080830151610a866080860182610985565b5060a0830151610a9960a0860182610985565b5060c0830151610aac60c0860182610985565b5060e083015184820360e0860152610ac482826109da565b915050610100830151610adb610100860182610985565b508091505092915050565b60006020820190508181036000830152610b008184610a13565b905092915050565b600080600080600080600080610100898b031215610b2957610b2861067a565b5b6000610b378b828c016106a5565b985050602089013567ffffffffffffffff811115610b5857610b5761067f565b5b610b648b828c016107d2565b975050604089013567ffffffffffffffff811115610b8557610b8461067f565b5b610b918b828c016107d2565b9650506060610ba28b828c016106a5565b9550506080610bb38b828c016106a5565b94505060a0610bc48b828c016106a5565b93505060c0610bd58b828c016106a5565b92505060e089013567ffffffffffffffff811115610bf657610bf561067f565b5b610c028b828c016107d2565b9150509295985092959890939650565b7f4e487b7100000000000000000000000000000000000000000000000000000000600052603260045260246000fd5b7f4e487b7100000000000000000000000000000000000000000000000000000000600052602260045260246000fd5b60006002820490506001821680610c8857607f821691505b602082108103610c9b57610c9a610c41565b5b50919050565b600081905092915050565b60008190508160005260206000209050919050565b60008154610cce81610c70565b610cd88186610ca1565b94506001821660008114610cf35760018114610d0857610d3b565b60ff1983168652811515820286019350610d3b565b610d1185610cac565b60005b83811015610d3357815481890152600182019150602081019050610d14565b838801955050505b50505092915050565b6000610d508284610cc1565b915081905092915050565b7f4e487b7100000000000000000000000000000000000000000000000000000000600052601160045260246000fd5b6000610d9582610684565b91507fffffffffffffffffffffffffffffffffffffffffffffffffffffffffffffffff8203610dc757610dc6610d5b565b5b600182019050919050565b600082825260208201905092915050565b7f4f6e6c7920485221000000000000000000000000000000000000000000000000600082015250565b6000610e19600883610dd2565b9150610e2482610de3565b602082019050919050565b60006020820190508181036000830152610e4881610e0c565b9050919050565b60008190508160005260206000209050919050565b60006020601f8301049050919050565b600082821b905092915050565b600060088302610eb17fffffffffffffffffffffffffffffffffffffffffffffffffffffffffffffffff82610e74565b610ebb8683610e74565b95508019841693508086168417925050509392505050565b6000819050919050565b6000610ef8610ef3610eee84610684565b610ed3565b610684565b9050919050565b6000819050919050565b610f1283610edd565b610f26610f1e82610eff565b848454610e81565b825550505050565b600090565b610f3b610f2e565b610f46818484610f09565b505050565b5b81811015610f6a57610f5f600082610f33565b600181019050610f4c565b5050565b601f821115610faf57610f8081610e4f565b610f8984610e64565b81016020851015610f98578190505b610fac610fa485610e64565b830182610f4b565b50505b505050565b600082821c905092915050565b6000610fd260001984600802610fb4565b1980831691505092915050565b6000610feb8383610fc1565b9150826002028217905092915050565b61100482610994565b67ffffffffffffffff81111561101d5761101c6106d5565b5b6110278254610c70565b611032828285610f6e565b600060209050601f8311600181146110655760008415611053578287015190505b61105d8582610fdf565b8655506110c5565b601f19841661107386610e4f565b60005b8281101561109b57848901518255600182019150602085019450602081019050611076565b868310156110b857848901516110b4601f891682610fc1565b8355505b6001600288020188555050505b505050505050565b60006110d882610994565b6110e28185610dd2565b93506110f28185602086016109b0565b6110fb816106c4565b840191505092915050565b600060808201905061111b600083018761091b565b611128602083018661091b565b818103604083015261113a81856110cd565b9050611149606083018461091b565b9594505050505056fea264697066735822122054c16cffef34160e34fb2cf535a04947828423c210cd52b10193a741c51ef4b064736f6c63430008130033",
  "immutableReferences": {},
  "source": "// SPDX-License-Identifier: MIT\r\npragma solidity ^0.8.19;\r\n\r\ncontract PayslipContract {\r\n\r\n    address public hrAdmin;\r\n\r\n    struct Payslip {\r\n        uint256 employeeId;\r\n        string  employeeName;\r\n        string  company;\r\n        uint256 basicSalary;\r\n        uint256 netPay;\r\n        uint256 month;\r\n        uint256 year;\r\n        string  payslipHash;\r\n        uint256 timestamp;\r\n    }\r\n\r\n    mapping(uint256 => Payslip[]) private payslips;\r\n\r\n    event PayslipGenerated(\r\n        uint256 employeeId,\r\n        uint256 netPay,\r\n        string  payslipHash,\r\n        uint256 timestamp\r\n    );\r\n\r\n    constructor() {\r\n        hrAdmin = msg.sender;\r\n    }\r\n\r\n    modifier onlyHR() {\r\n        require(msg.sender == hrAdmin, \"Only HR!\");\r\n        _;\r\n    }\r\n\r\n    function generatePayslip(\r\n        uint256 _empId,\r\n        string memory _name,\r\n        string memory _company,\r\n        uint256 _basicSalary,\r\n        uint256 _netPay,\r\n        uint256 _month,\r\n        uint256 _year,\r\n        string memory _hash\r\n    ) public onlyHR {\r\n        payslips[_empId].push(Payslip(\r\n            _empId,\r\n            _name,\r\n            _company,\r\n            _basicSalary,\r\n            _netPay,\r\n            _month,\r\n            _year,\r\n            _hash,\r\n            block.timestamp\r\n        ));\r\n        emit PayslipGenerated(_empId, _netPay, _hash, block.timestamp);\r\n    }\r\n\r\n    function getPayslip(uint256 _empId, uint256 _index)\r\n        public view returns (Payslip memory) {\r\n        return payslips[_empId][_index];\r\n    }\r\n\r\n    function getPayslipCount(uint256 _empId)\r\n        public view returns (uint256) {\r\n        return payslips[_empId].length;\r\n    }\r\n\r\n    function verifyPayslip(uint256 _empId, string memory _hash)\r\n        public view returns (bool) {\r\n        for (uint i = 0; i < payslips[_empId].length; i++) {\r\n            if (keccak256(bytes(payslips[_empId][i].payslipHash)) ==\r\n                keccak256(bytes(_hash))) {\r\n                return true;\r\n            }\r\n        }\r\n        return false;\r\n    }\r\n}",
  "sourcePath": "C:\\Users\\ratna\\OneDrive\\Desktop\\blockchain\\New folder\\paychain\\contracts\\PayslipContract.sol",
  "compiler": {
    "name": "solc",
    "version": "0.8.19+commit.7dd6d404.Emscripten.clang"
  },
  "schemaVersion": "3.4.16",
  "updatedAt": "2026-03-21T17:54:27.534Z",
  "networkType": "ethereum",
  "devdoc": {
    "kind": "dev",
    "methods": {},
    "version": 1
  },
  "userdoc": {
    "kind": "user",
    "methods": {},
    "version": 1
  }
}